{
  "_format": "hh-sol-artifact-1",
  "contractName": "DonationCampaign",
  "sourceName": "contracts/DonationCampaign.sol",
  "abi": [
    {
      "inputs": [],
      "stateMutability": "nonpayable",
      "type": "constructor"
    },
    {
      "anonymous": false,
      "inputs": [
        {
          "indexed": true,
          "internalType": "uint256",
          "name": "campaignId",
          "type": "uint256"
        },
        {
          "indexed": false,
          "internalType": "uint256",
          "name": "totalRaised",
          "type": "uint256"
        }
      ],
      "name": "CampaignClosed",
      "type": "event"
    },
    {
      "anonymous": false,
      "inputs": [
        {
          "indexed": true,
          "internalType": "uint256",
          "name": "campaignId",
          "type": "uint256"
        },
        {
          "indexed": false,
          "internalType": "string",
          "name": "title",
          "type": "string"
        },
        {
          "indexed": false,
          "internalType": "string",
          "name": "description",
          "type": "string"
        },
        {
          "indexed": false,
          "internalType": "uint256",
          "name": "targetAmount",
          "type": "uint256"
        }
      ],
      "name": "CampaignCreated",
      "type": "event"
    },
    {
      "anonymous": false,
      "inputs": [
        {
          "indexed": true,
          "internalType": "uint256",
          "name": "campaignId",
          "type": "uint256"
        },
        {
          "indexed": true,
          "internalType": "address",
          "name": "admin",
          "type": "address"
        }
      ],
      "name": "CampaignDeleted",
      "type": "event"
    },
    {
      "anonymous": false,
      "inputs": [
        {
          "indexed": true,
          "internalType": "uint256",
          "name": "campaignId",
          "type": "uint256"
        },
        {
          "indexed": true,
          "internalType": "address",
          "name": "donor",
          "type": "address"
        },
        {
          "indexed": false,
          "internalType": "uint256",
          "name": "amount",
          "type": "uint256"
        },
        {
          "indexed": false,
          "internalType": "uint256",
          "name": "timestamp",
          "type": "uint256"
        }
      ],
      "name": "DonationReceived",
      "type": "event"
    },
    {
      "anonymous": false,
      "inputs": [
        {
          "indexed": true,
          "internalType": "uint256",
          "name": "campaignId",
          "type": "uint256"
        },
        {
          "indexed": true,
          "internalType": "address",
          "name": "admin",
          "type": "address"
        },
        {
          "indexed": false,
          "internalType": "uint256",
          "name": "amount",
          "type": "uint256"
        }
      ],
      "name": "FundsWithdrawn",
      "type": "event"
    },
    {
      "inputs": [],
      "name": "admin",
      "outputs": [
        {
          "internalType": "address",
          "name": "",
          "type": "address"
        }
      ],
      "stateMutability": "view",
      "type": "function"
    },
    {
      "inputs": [
        {
          "internalType": "uint256",
          "name": "",
          "type": "uint256"
        }
      ],
      "name": "campaignBalance",
      "outputs": [
        {
          "internalType": "uint256",
          "name": "",
          "type": "uint256"
        }
      ],
      "stateMutability": "view",
      "type": "function"
    },
    {
      "inputs": [],
      "name": "campaignCounter",
      "outputs": [
        {
          "internalType": "uint256",
          "name": "",
          "type": "uint256"
        }
      ],
      "stateMutability": "view",
      "type": "function"
    },
    {
      "inputs": [
        {
          "internalType": "uint256",
          "name": "",
          "type": "uint256"
        }
      ],
      "name": "campaigns",
      "outputs": [
        {
          "internalType": "uint256",
          "name": "id",
          "type": "uint256"
        },
        {
          "internalType": "string",
          "name": "title",
          "type": "string"
        },
        {
          "internalType": "string",
          "name": "description",
          "type": "string"
        },
        {
          "internalType": "uint256",
          "name": "targetAmount",
          "type": "uint256"
        },
        {
          "internalType": "uint256",
          "name": "totalRaised",
          "type": "uint256"
        },
        {
          "internalType": "uint256",
          "name": "createdAt",
          "type": "uint256"
        },
        {
          "internalType": "bool",
          "name": "isActive",
          "type": "bool"
        },
        {
          "internalType": "bool",
          "name": "isDeleted",
          "type": "bool"
        },
        {
          "internalType": "address",
          "name": "creator",
          "type": "address"
        }
      ],
      "stateMutability": "view",
      "type": "function"
    },
    {
      "inputs": [
        {
          "internalType": "uint256",
          "name": "_campaignId",
          "type": "uint256"
        }
      ],
      "name": "closeCampaign",
      "outputs": [],
      "stateMutability": "nonpayable",
      "type": "function"
    },
    {
      "inputs": [
        {
          "internalType": "string",
          "name": "_title",
          "type": "string"
        },
        {
          "internalType": "string",
          "name": "_description",
          "type": "string"
        },
        {
          "internalType": "uint256",
          "name": "_targetAmount",
          "type": "uint256"
        }
      ],
      "name": "createCampaign",
      "outputs": [
        {
          "internalType": "uint256",
          "name": "",
          "type": "uint256"
        }
      ],
      "stateMutability": "nonpayable",
      "type": "function"
    },
    {
      "inputs": [
        {
          "internalType": "uint256",
          "name": "_campaignId",
          "type": "uint256"
        }
      ],
      "name": "deleteCampaign",
      "outputs": [],
      "stateMutability": "nonpayable",
      "type": "function"
    },
    {
      "inputs": [
        {
          "internalType": "uint256",
          "name": "_campaignId",
          "type": "uint256"
        }
      ],
      "name": "donate",
      "outputs": [],
      "stateMutability": "payable",
      "type": "function"
    },
    {
      "inputs": [
        {
          "internalType": "uint256",
          "name": "",
          "type": "uint256"
        }
      ],
      "name": "donations",
      "outputs": [
        {
          "internalType": "address",
          "name": "donor",
          "type": "address"
        },
        {
          "internalType": "uint256",
          "name": "campaignId",
          "type": "uint256"
        },
        {
          "internalType": "uint256",
          "name": "amount",
          "type": "uint256"
        },
        {
          "internalType": "uint256",
          "name": "timestamp",
          "type": "uint256"
        }
      ],
      "stateMutability": "view",
      "type": "function"
    },
    {
      "inputs": [],
      "name": "getAllDonations",
      "outputs": [
        {
          "components": [
            {
              "internalType": "address",
              "name": "donor",
              "type": "address"
            },
            {
              "internalType": "uint256",
              "name": "campaignId",
              "type": "uint256"
            },
            {
              "internalType": "uint256",
              "name": "amount",
              "type": "uint256"
            },
            {
              "internalType": "uint256",
              "name": "timestamp",
              "type": "uint256"
            }
          ],
          "internalType": "struct DonationCampaign.Donation[]",
          "name": "",
          "type": "tuple[]"
        }
      ],
      "stateMutability": "view",
      "type": "function"
    },
    {
      "inputs": [
        {
          "internalType": "uint256",
          "name": "_campaignId",
          "type": "uint256"
        }
      ],
      "name": "getCampaign",
      "outputs": [
        {
          "components": [
            {
              "internalType": "uint256",
              "name": "id",
              "type": "uint256"
            },
            {
              "internalType": "string",
              "name": "title",
              "type": "string"
            },
            {
              "internalType": "string",
              "name": "description",
              "type": "string"
            },
            {
              "internalType": "uint256",
              "name": "targetAmount",
              "type": "uint256"
            },
            {
              "internalType": "uint256",
              "name": "totalRaised",
              "type": "uint256"
            },
            {
              "internalType": "uint256",
              "name": "createdAt",
              "type": "uint256"
            },
            {
              "internalType": "bool",
              "name": "isActive",
              "type": "bool"
            },
            {
              "internalType": "bool",
              "name": "isDeleted",
              "type": "bool"
            },
            {
              "internalType": "address",
              "name": "creator",
              "type": "address"
            }
          ],
          "internalType": "struct DonationCampaign.Campaign",
          "name": "",
          "type": "tuple"
        }
      ],
      "stateMutability": "view",
      "type": "function"
    },
    {
      "inputs": [
        {
          "internalType": "uint256",
          "name": "_campaignId",
          "type": "uint256"
        }
      ],
      "name": "getCampaignDonations",
      "outputs": [
        {
          "components": [
            {
              "internalType": "address",
              "name": "donor",
              "type": "address"
            },
            {
              "internalType": "uint256",
              "name": "campaignId",
              "type": "uint256"
            },
            {
              "internalType": "uint256",
              "name": "amount",
              "type": "uint256"
            },
            {
              "internalType": "uint256",
              "name": "timestamp",
              "type": "uint256"
            }
          ],
          "internalType": "struct DonationCampaign.Donation[]",
          "name": "",
          "type": "tuple[]"
        }
      ],
      "stateMutability": "view",
      "type": "function"
    },
    {
      "inputs": [
        {
          "internalType": "uint256",
          "name": "_campaignId",
          "type": "uint256"
        }
      ],
      "name": "openCampaign",
      "outputs": [],
      "stateMutability": "nonpayable",
      "type": "function"
    },
    {
      "inputs": [
        {
          "internalType": "uint256",
          "name": "_campaignId",
          "type": "uint256"
        }
      ],
      "name": "withdrawFunds",
      "outputs": [],
      "stateMutability": "nonpayable",
      "type": "function"
    }
  ],
  "bytecode": "0x6080604052348015600f57600080fd5b50336000806101000a81548173ffffffffffffffffffffffffffffffffffffffff021916908373ffffffffffffffffffffffffffffffffffffffff1602179055506000600181905550612810806100676000396000f3fe6080604052600436106100dd5760003560e01c8063b0e1c1e11161007f578063f851a44011610059578063f851a440146102c9578063f8626af8146102f4578063fca604d714610334578063ffa56a571461035f576100dd565b8063b0e1c1e114610247578063bd6c67e914610270578063f14faf6f146102ad576100dd565b806338a59a07116100bb57806338a59a07146101795780635167642f146101a45780635598f8cc146101e1578063759701931461021e576100dd565b80630ec9ea17146100e2578063141961bc1461010b578063155dd5ee14610150575b600080fd5b3480156100ee57600080fd5b5061010960048036038101906101049190611881565b61039c565b005b34801561011757600080fd5b50610132600480360381019061012d9190611881565b610511565b604051610147999897969594939291906119a9565b60405180910390f35b34801561015c57600080fd5b5061017760048036038101906101729190611881565b6106a9565b005b34801561018557600080fd5b5061018e6108e9565b60405161019b9190611b66565b60405180910390f35b3480156101b057600080fd5b506101cb60048036038101906101c69190611881565b6109bc565b6040516101d89190611b66565b60405180910390f35b3480156101ed57600080fd5b5061020860048036038101906102039190611881565b610b94565b6040516102159190611cad565b60405180910390f35b34801561022a57600080fd5b5061024560048036038101906102409190611881565b610deb565b005b34801561025357600080fd5b5061026e60048036038101906102699190611881565b61101a565b005b34801561027c57600080fd5b5061029760048036038101906102929190611881565b6111dc565b6040516102a49190611ccf565b60405180910390f35b6102c760048036038101906102c29190611881565b6111f4565b005b3480156102d557600080fd5b506102de6114c3565b6040516102eb9190611cea565b60405180910390f35b34801561030057600080fd5b5061031b60048036038101906103169190611881565b6114e7565b60405161032b9493929190611d05565b60405180910390f35b34801561034057600080fd5b50610349611547565b6040516103569190611ccf565b60405180910390f35b34801561036b57600080fd5b5061038660048036038101906103819190611e7f565b61154d565b6040516103939190611ccf565b60405180910390f35b60008054906101000a900473ffffffffffffffffffffffffffffffffffffffff1673ffffffffffffffffffffffffffffffffffffffff163373ffffffffffffffffffffffffffffffffffffffff161461042a576040517f08c379a000000000000000000000000000000000000000000000000000000000815260040161042190611f7c565b60405180910390fd5b60008111801561043c57506001548111155b61047b576040517f08c379a000000000000000000000000000000000000000000000000000000000815260040161047290611fe8565b60405180910390fd5b6002600082815260200190815260200160002060060160009054906101000a900460ff16156104df576040517f08c379a00000000000000000000000000000000000000000000000000000000081526004016104d690612054565b60405180910390fd5b60016002600083815260200190815260200160002060060160006101000a81548160ff02191690831515021790555050565b600260205280600052604060002060009150905080600001549080600101805461053a906120a3565b80601f0160208091040260200160405190810160405280929190818152602001828054610566906120a3565b80156105b35780601f10610588576101008083540402835291602001916105b3565b820191906000526020600020905b81548152906001019060200180831161059657829003601f168201915b5050505050908060020180546105c8906120a3565b80601f01602080910402602001604051908101604052809291908181526020018280546105f4906120a3565b80156106415780601f1061061657610100808354040283529160200191610641565b820191906000526020600020905b81548152906001019060200180831161062457829003601f168201915b5050505050908060030154908060040154908060050154908060060160009054906101000a900460ff16908060060160019054906101000a900460ff16908060060160029054906101000a900473ffffffffffffffffffffffffffffffffffffffff16905089565b60008054906101000a900473ffffffffffffffffffffffffffffffffffffffff1673ffffffffffffffffffffffffffffffffffffffff163373ffffffffffffffffffffffffffffffffffffffff1614610737576040517f08c379a000000000000000000000000000000000000000000000000000000000815260040161072e90611f7c565b60405180910390fd5b60008111801561074957506001548111155b610788576040517f08c379a000000000000000000000000000000000000000000000000000000000815260040161077f90611fe8565b60405180910390fd5b60006003600083815260200190815260200160002054116107de576040517f08c379a00000000000000000000000000000000000000000000000000000000081526004016107d590612120565b60405180910390fd5b6000600360008381526020019081526020016000205490506000600360008481526020019081526020016000208190555060008054906101000a900473ffffffffffffffffffffffffffffffffffffffff1673ffffffffffffffffffffffffffffffffffffffff166108fc829081150290604051600060405180830381858888f19350505050158015610875573d6000803e3d6000fd5b5060008054906101000a900473ffffffffffffffffffffffffffffffffffffffff1673ffffffffffffffffffffffffffffffffffffffff16827ff440aec6b52895984d061d622e6edeba6210f7c3e059be920663140c084560d7836040516108dd9190611ccf565b60405180910390a35050565b60606004805480602002602001604051908101604052809291908181526020016000905b828210156109b357838290600052602060002090600402016040518060800160405290816000820160009054906101000a900473ffffffffffffffffffffffffffffffffffffffff1673ffffffffffffffffffffffffffffffffffffffff1673ffffffffffffffffffffffffffffffffffffffff16815260200160018201548152602001600282015481526020016003820154815250508152602001906001019061090d565b50505050905090565b60606000805b600480549050811015610a175783600482815481106109e4576109e3612140565b5b90600052602060002090600402016001015403610a0a578180610a069061219e565b9250505b80806001019150506109c2565b5060008167ffffffffffffffff811115610a3457610a33611d54565b5b604051908082528060200260200182016040528015610a6d57816020015b610a5a611793565b815260200190600190039081610a525790505b5090506000805b600480549050811015610b88578560048281548110610a9657610a95612140565b5b90600052602060002090600402016001015403610b7b5760048181548110610ac157610ac0612140565b5b90600052602060002090600402016040518060800160405290816000820160009054906101000a900473ffffffffffffffffffffffffffffffffffffffff1673ffffffffffffffffffffffffffffffffffffffff1673ffffffffffffffffffffffffffffffffffffffff1681526020016001820154815260200160028201548152602001600382015481525050838381518110610b6157610b60612140565b5b60200260200101819052508180610b779061219e565b9250505b8080600101915050610a74565b50819350505050919050565b610b9c6117d1565b600082118015610bae57506001548211155b610bed576040517f08c379a0000000000000000000000000000000000000000000000000000000008152600401610be490611fe8565b60405180910390fd5b600260008381526020019081526020016000206040518061012001604052908160008201548152602001600182018054610c26906120a3565b80601f0160208091040260200160405190810160405280929190818152602001828054610c52906120a3565b8015610c9f5780601f10610c7457610100808354040283529160200191610c9f565b820191906000526020600020905b815481529060010190602001808311610c8257829003601f168201915b50505050508152602001600282018054610cb8906120a3565b80601f0160208091040260200160405190810160405280929190818152602001828054610ce4906120a3565b8015610d315780601f10610d0657610100808354040283529160200191610d31565b820191906000526020600020905b815481529060010190602001808311610d1457829003601f168201915b505050505081526020016003820154815260200160048201548152602001600582015481526020016006820160009054906101000a900460ff161515151581526020016006820160019054906101000a900460ff161515151581526020016006820160029054906101000a900473ffffffffffffffffffffffffffffffffffffffff1673ffffffffffffffffffffffffffffffffffffffff1673ffffffffffffffffffffffffffffffffffffffff16815250509050919050565b60008054906101000a900473ffffffffffffffffffffffffffffffffffffffff1673ffffffffffffffffffffffffffffffffffffffff163373ffffffffffffffffffffffffffffffffffffffff1614610e79576040517f08c379a0000000000000000000000000000000000000000000000000000000008152600401610e7090611f7c565b60405180910390fd5b600081118015610e8b57506001548111155b610eca576040517f08c379a0000000000000000000000000000000000000000000000000000000008152600401610ec190611fe8565b60405180910390fd5b6002600082815260200190815260200160002060060160019054906101000a900460ff1615610f2e576040517f08c379a0000000000000000000000000000000000000000000000000000000008152600401610f2590612232565b60405180910390fd5b6000600360008381526020019081526020016000205414610f84576040517f08c379a0000000000000000000000000000000000000000000000000000000008152600401610f7b906122c4565b60405180910390fd5b60016002600083815260200190815260200160002060060160016101000a81548160ff02191690831515021790555060008054906101000a900473ffffffffffffffffffffffffffffffffffffffff1673ffffffffffffffffffffffffffffffffffffffff16817f8b2c4705c247d8d9f05477ce4c82c82947d7b6274633d30c3f1a0e07a66d4bb660405160405180910390a350565b60008054906101000a900473ffffffffffffffffffffffffffffffffffffffff1673ffffffffffffffffffffffffffffffffffffffff163373ffffffffffffffffffffffffffffffffffffffff16146110a8576040517f08c379a000000000000000000000000000000000000000000000000000000000815260040161109f90611f7c565b60405180910390fd5b6000811180156110ba57506001548111155b6110f9576040517f08c379a00000000000000000000000000000000000000000000000000000000081526004016110f090611fe8565b60405180910390fd5b6002600082815260200190815260200160002060060160009054906101000a900460ff1661115c576040517f08c379a000000000000000000000000000000000000000000000000000000000815260040161115390612330565b60405180910390fd5b60006002600083815260200190815260200160002060060160006101000a81548160ff021916908315150217905550807f55468ddebce251685ac34a730dbdcef0b68719d769c74914843abf493b24deef60026000848152602001908152602001600020600401546040516111d19190611ccf565b60405180910390a250565b60036020528060005260406000206000915090505481565b60008111801561120657506001548111155b611245576040517f08c379a000000000000000000000000000000000000000000000000000000000815260040161123c90611fe8565b60405180910390fd5b6002600082815260200190815260200160002060060160009054906101000a900460ff166112a8576040517f08c379a000000000000000000000000000000000000000000000000000000000815260040161129f9061239c565b60405180910390fd5b6002600082815260200190815260200160002060060160019054906101000a900460ff161561130c576040517f08c379a000000000000000000000000000000000000000000000000000000000815260040161130390612408565b60405180910390fd5b6000341161134f576040517f08c379a00000000000000000000000000000000000000000000000000000000081526004016113469061249a565b60405180910390fd5b3460026000838152602001908152602001600020600401600082825461137591906124ba565b925050819055503460036000838152602001908152602001600020600082825461139f91906124ba565b92505081905550600460405180608001604052803373ffffffffffffffffffffffffffffffffffffffff16815260200183815260200134815260200142815250908060018154018082558091505060019003906000526020600020906004020160009091909190915060008201518160000160006101000a81548173ffffffffffffffffffffffffffffffffffffffff021916908373ffffffffffffffffffffffffffffffffffffffff16021790555060208201518160010155604082015181600201556060820151816003015550503373ffffffffffffffffffffffffffffffffffffffff16817f3dbea1b4ce5f95137fdcac9b1d685825c3d70ace830df1ca5a181d3887add41034426040516114b89291906124ee565b60405180910390a350565b60008054906101000a900473ffffffffffffffffffffffffffffffffffffffff1681565b600481815481106114f757600080fd5b90600052602060002090600402016000915090508060000160009054906101000a900473ffffffffffffffffffffffffffffffffffffffff16908060010154908060020154908060030154905084565b60015481565b60008060009054906101000a900473ffffffffffffffffffffffffffffffffffffffff1673ffffffffffffffffffffffffffffffffffffffff163373ffffffffffffffffffffffffffffffffffffffff16146115de576040517f08c379a00000000000000000000000000000000000000000000000000000000081526004016115d590611f7c565b60405180910390fd5b600160008154809291906115f19061219e565b91905055506040518061012001604052806001548152602001858152602001848152602001838152602001600081526020014281526020016001151581526020016000151581526020013373ffffffffffffffffffffffffffffffffffffffff1681525060026000600154815260200190815260200160002060008201518160000155602082015181600101908161168991906126c3565b50604082015181600201908161169f91906126c3565b50606082015181600301556080820151816004015560a0820151816005015560c08201518160060160006101000a81548160ff02191690831515021790555060e08201518160060160016101000a81548160ff0219169083151502179055506101008201518160060160026101000a81548173ffffffffffffffffffffffffffffffffffffffff021916908373ffffffffffffffffffffffffffffffffffffffff1602179055509050506001547fc7957c78f4d2eb0113d3e9f6c19c01f377491366fb0272138a35a09eaf9fc7ff85858560405161177f93929190612795565b60405180910390a260015490509392505050565b6040518060800160405280600073ffffffffffffffffffffffffffffffffffffffff1681526020016000815260200160008152602001600081525090565b604051806101200160405280600081526020016060815260200160608152602001600081526020016000815260200160008152602001600015158152602001600015158152602001600073ffffffffffffffffffffffffffffffffffffffff1681525090565b6000604051905090565b600080fd5b600080fd5b6000819050919050565b61185e8161184b565b811461186957600080fd5b50565b60008135905061187b81611855565b92915050565b60006020828403121561189757611896611841565b5b60006118a58482850161186c565b91505092915050565b6118b78161184b565b82525050565b600081519050919050565b600082825260208201905092915050565b60005b838110156118f75780820151818401526020810190506118dc565b60008484015250505050565b6000601f19601f8301169050919050565b600061191f826118bd565b61192981856118c8565b93506119398185602086016118d9565b61194281611903565b840191505092915050565b60008115159050919050565b6119628161194d565b82525050565b600073ffffffffffffffffffffffffffffffffffffffff82169050919050565b600061199382611968565b9050919050565b6119a381611988565b82525050565b6000610120820190506119bf600083018c6118ae565b81810360208301526119d1818b611914565b905081810360408301526119e5818a611914565b90506119f460608301896118ae565b611a0160808301886118ae565b611a0e60a08301876118ae565b611a1b60c0830186611959565b611a2860e0830185611959565b611a3661010083018461199a565b9a9950505050505050505050565b600081519050919050565b600082825260208201905092915050565b6000819050602082019050919050565b611a7981611988565b82525050565b611a888161184b565b82525050565b608082016000820151611aa46000850182611a70565b506020820151611ab76020850182611a7f565b506040820151611aca6040850182611a7f565b506060820151611add6060850182611a7f565b50505050565b6000611aef8383611a8e565b60808301905092915050565b6000602082019050919050565b6000611b1382611a44565b611b1d8185611a4f565b9350611b2883611a60565b8060005b83811015611b59578151611b408882611ae3565b9750611b4b83611afb565b925050600181019050611b2c565b5085935050505092915050565b60006020820190508181036000830152611b808184611b08565b905092915050565b600082825260208201905092915050565b6000611ba4826118bd565b611bae8185611b88565b9350611bbe8185602086016118d9565b611bc781611903565b840191505092915050565b611bdb8161194d565b82525050565b600061012083016000830151611bfa6000860182611a7f565b5060208301518482036020860152611c128282611b99565b91505060408301518482036040860152611c2c8282611b99565b9150506060830151611c416060860182611a7f565b506080830151611c546080860182611a7f565b5060a0830151611c6760a0860182611a7f565b5060c0830151611c7a60c0860182611bd2565b5060e0830151611c8d60e0860182611bd2565b50610100830151611ca2610100860182611a70565b508091505092915050565b60006020820190508181036000830152611cc78184611be1565b905092915050565b6000602082019050611ce460008301846118ae565b92915050565b6000602082019050611cff600083018461199a565b92915050565b6000608082019050611d1a600083018761199a565b611d2760208301866118ae565b611d3460408301856118ae565b611d4160608301846118ae565b95945050505050565b600080fd5b600080fd5b7f4e487b7100000000000000000000000000000000000000000000000000000000600052604160045260246000fd5b611d8c82611903565b810181811067ffffffffffffffff82111715611dab57611daa611d54565b5b80604052505050565b6000611dbe611837565b9050611dca8282611d83565b919050565b600067ffffffffffffffff821115611dea57611de9611d54565b5b611df382611903565b9050602081019050919050565b82818337600083830152505050565b6000611e22611e1d84611dcf565b611db4565b905082815260208101848484011115611e3e57611e3d611d4f565b5b611e49848285611e00565b509392505050565b600082601f830112611e6657611e65611d4a565b5b8135611e76848260208601611e0f565b91505092915050565b600080600060608486031215611e9857611e97611841565b5b600084013567ffffffffffffffff811115611eb657611eb5611846565b5b611ec286828701611e51565b935050602084013567ffffffffffffffff811115611ee357611ee2611846565b5b611eef86828701611e51565b9250506040611f008682870161186c565b9150509250925092565b7f4f6e6c792061646d696e2063616e2063616c6c20746869732066756e6374696f60008201527f6e00000000000000000000000000000000000000000000000000000000000000602082015250565b6000611f666021836118c8565b9150611f7182611f0a565b604082019050919050565b60006020820190508181036000830152611f9581611f59565b9050919050565b7f496e76616c69642063616d706169676e20494400000000000000000000000000600082015250565b6000611fd26013836118c8565b9150611fdd82611f9c565b602082019050919050565b6000602082019050818103600083015261200181611fc5565b9050919050565b7f43616d706169676e20697320616c726561647920616374697665000000000000600082015250565b600061203e601a836118c8565b915061204982612008565b602082019050919050565b6000602082019050818103600083015261206d81612031565b9050919050565b7f4e487b7100000000000000000000000000000000000000000000000000000000600052602260045260246000fd5b600060028204905060018216806120bb57607f821691505b6020821081036120ce576120cd612074565b5b50919050565b7f4e6f2066756e647320746f207769746864726177000000000000000000000000600082015250565b600061210a6014836118c8565b9150612115826120d4565b602082019050919050565b60006020820190508181036000830152612139816120fd565b9050919050565b7f4e487b7100000000000000000000000000000000000000000000000000000000600052603260045260246000fd5b7f4e487b7100000000000000000000000000000000000000000000000000000000600052601160045260246000fd5b60006121a98261184b565b91507fffffffffffffffffffffffffffffffffffffffffffffffffffffffffffffffff82036121db576121da61216f565b5b600182019050919050565b7f43616d706169676e20697320616c72656164792064656c657465640000000000600082015250565b600061221c601b836118c8565b9150612227826121e6565b602082019050919050565b6000602082019050818103600083015261224b8161220f565b9050919050565b7f43616e6e6f742064656c6574652063616d706169676e20776974682072656d6160008201527f696e696e672066756e6473000000000000000000000000000000000000000000602082015250565b60006122ae602b836118c8565b91506122b982612252565b604082019050919050565b600060208201905081810360008301526122dd816122a1565b9050919050565b7f43616d706169676e20697320616c726561647920636c6f736564000000000000600082015250565b600061231a601a836118c8565b9150612325826122e4565b602082019050919050565b600060208201905081810360008301526123498161230d565b9050919050565b7f43616d706169676e206973206e6f742061637469766500000000000000000000600082015250565b60006123866016836118c8565b915061239182612350565b602082019050919050565b600060208201905081810360008301526123b581612379565b9050919050565b7f43616d706169676e20686173206265656e2064656c6574656400000000000000600082015250565b60006123f26019836118c8565b91506123fd826123bc565b602082019050919050565b60006020820190508181036000830152612421816123e5565b9050919050565b7f446f6e6174696f6e20616d6f756e74206d75737420626520677265617465722060008201527f7468616e20300000000000000000000000000000000000000000000000000000602082015250565b60006124846026836118c8565b915061248f82612428565b604082019050919050565b600060208201905081810360008301526124b381612477565b9050919050565b60006124c58261184b565b91506124d08361184b565b92508282019050808211156124e8576124e761216f565b5b92915050565b600060408201905061250360008301856118ae565b61251060208301846118ae565b9392505050565b60008190508160005260206000209050919050565b60006020601f8301049050919050565b600082821b905092915050565b6000600883026125797fffffffffffffffffffffffffffffffffffffffffffffffffffffffffffffffff8261253c565b612583868361253c565b95508019841693508086168417925050509392505050565b6000819050919050565b60006125c06125bb6125b68461184b565b61259b565b61184b565b9050919050565b6000819050919050565b6125da836125a5565b6125ee6125e6826125c7565b848454612549565b825550505050565b600090565b6126036125f6565b61260e8184846125d1565b505050565b5b81811015612632576126276000826125fb565b600181019050612614565b5050565b601f8211156126775761264881612517565b6126518461252c565b81016020851015612660578190505b61267461266c8561252c565b830182612613565b50505b505050565b600082821c905092915050565b600061269a6000198460080261267c565b1980831691505092915050565b60006126b38383612689565b9150826002028217905092915050565b6126cc826118bd565b67ffffffffffffffff8111156126e5576126e4611d54565b5b6126ef82546120a3565b6126fa828285612636565b600060209050601f83116001811461272d576000841561271b578287015190505b61272585826126a7565b86555061278d565b601f19841661273b86612517565b60005b828110156127635784890151825560018201915060208501945060208101905061273e565b86831015612780578489015161277c601f891682612689565b8355505b6001600288020188555050505b505050505050565b600060608201905081810360008301526127af8186611914565b905081810360208301526127c38185611914565b90506127d260408301846118ae565b94935050505056fea26469706673582212200b5392a39db5cff3236448d8b8812b92608d07533e56923ee5cf98577b88c13e64736f6c634300081c0033",
  "linkReferences": {},
  "deployedLinkReferences": {}
}