{
  "_format": "hh-sol-artifact-1",
  "contractName": "Donation",
  "sourceName": "contracts/Donation.sol",
  "abi": [
    {
      "inputs": [],
      "stateMutability": "nonpayable",
      "type": "constructor"
    },
    {
      "anonymous": false,
      "inputs": [
        {
          "indexed": true,
          "internalType": "address",
          "name": "donor",
          "type": "address"
        },
        {
          "indexed": false,
          "internalType": "uint256",
          "name": "amount",
          "type": "uint256"
        },
        {
          "indexed": false,
          "internalType": "uint256",
          "name": "timestamp",
          "type": "uint256"
        }
      ],
      "name": "DonationReceived",
      "type": "event"
    },
    {
      "inputs": [],
      "name": "donate",
      "outputs": [],
      "stateMutability": "payable",
      "type": "function"
    },
    {
      "inputs": [
        {
          "internalType": "uint256",
          "name": "",
          "type": "uint256"
        }
      ],
      "name": "donors",
      "outputs": [
        {
          "internalType": "address",
          "name": "donorAddress",
          "type": "address"
        },
        {
          "internalType": "uint256",
          "name": "amount",
          "type": "uint256"
        },
        {
          "internalType": "uint256",
          "name": "timestamp",
          "type": "uint256"
        }
      ],
      "stateMutability": "view",
      "type": "function"
    },
    {
      "inputs": [],
      "name": "getAllDonors",
      "outputs": [
        {
          "components": [
            {
              "internalType": "address",
              "name": "donorAddress",
              "type": "address"
            },
            {
              "internalType": "uint256",
              "name": "amount",
              "type": "uint256"
            },
            {
              "internalType": "uint256",
              "name": "timestamp",
              "type": "uint256"
            }
          ],
          "internalType": "struct Donation.Donor[]",
          "name": "",
          "type": "tuple[]"
        }
      ],
      "stateMutability": "view",
      "type": "function"
    },
    {
      "inputs": [
        {
          "internalType": "uint256",
          "name": "index",
          "type": "uint256"
        }
      ],
      "name": "getDonor",
      "outputs": [
        {
          "internalType": "address",
          "name": "",
          "type": "address"
        },
        {
          "internalType": "uint256",
          "name": "",
          "type": "uint256"
        },
        {
          "internalType": "uint256",
          "name": "",
          "type": "uint256"
        }
      ],
      "stateMutability": "view",
      "type": "function"
    },
    {
      "inputs": [],
      "name": "getDonorsCount",
      "outputs": [
        {
          "internalType": "uint256",
          "name": "",
          "type": "uint256"
        }
      ],
      "stateMutability": "view",
      "type": "function"
    },
    {
      "inputs": [],
      "name": "owner",
      "outputs": [
        {
          "internalType": "address",
          "name": "",
          "type": "address"
        }
      ],
      "stateMutability": "view",
      "type": "function"
    },
    {
      "inputs": [],
      "name": "totalDonations",
      "outputs": [
        {
          "internalType": "uint256",
          "name": "",
          "type": "uint256"
        }
      ],
      "stateMutability": "view",
      "type": "function"
    },
    {
      "inputs": [],
      "name": "withdraw",
      "outputs": [],
      "stateMutability": "nonpayable",
      "type": "function"
    },
    {
      "stateMutability": "payable",
      "type": "receive"
    }
  ],
  "bytecode": "0x6080604052348015600f57600080fd5b5033600160006101000a81548173ffffffffffffffffffffffffffffffffffffffff021916908373ffffffffffffffffffffffffffffffffffffffff160217905550610b39806100606000396000f3fe60806040526004361061007f5760003560e01c80638da5cb5b1161004e5780638da5cb5b1461015357806398e36b041461017e578063de2ed893146101a9578063ed88c68e146101d45761008e565b80633ccfd60b146100935780633f85b887146100aa5780634abfa163146100d55780636136a906146101145761008e565b3661008e5761008c6101de565b005b600080fd5b34801561009f57600080fd5b506100a8610345565b005b3480156100b657600080fd5b506100bf610440565b6040516100cc91906106b6565b60405180910390f35b3480156100e157600080fd5b506100fc60048036038101906100f79190610702565b61044c565b60405161010b93929190610770565b60405180910390f35b34801561012057600080fd5b5061013b60048036038101906101369190610702565b6104a6565b60405161014a93929190610770565b60405180910390f35b34801561015f57600080fd5b506101686105a8565b60405161017591906107a7565b60405180910390f35b34801561018a57600080fd5b506101936105ce565b6040516101a091906108d1565b60405180910390f35b3480156101b557600080fd5b506101be610697565b6040516101cb91906106b6565b60405180910390f35b6101dc6101de565b005b60003411610221576040517f08c379a000000000000000000000000000000000000000000000000000000000815260040161021890610950565b60405180910390fd5b600060405180606001604052803373ffffffffffffffffffffffffffffffffffffffff16815260200134815260200142815250908060018154018082558091505060019003906000526020600020906003020160009091909190915060008201518160000160006101000a81548173ffffffffffffffffffffffffffffffffffffffff021916908373ffffffffffffffffffffffffffffffffffffffff1602179055506020820151816001015560408201518160020155505034600260008282546102ec919061099f565b925050819055503373ffffffffffffffffffffffffffffffffffffffff167f4b0304ab2f313234b1cea012339c8f8c3bf2c8bb357d81a579cfdb35d2e3d030344260405161033b9291906109d3565b60405180910390a2565b600160009054906101000a900473ffffffffffffffffffffffffffffffffffffffff1673ffffffffffffffffffffffffffffffffffffffff163373ffffffffffffffffffffffffffffffffffffffff16146103d5576040517f08c379a00000000000000000000000000000000000000000000000000000000081526004016103cc90610a48565b60405180910390fd5b600160009054906101000a900473ffffffffffffffffffffffffffffffffffffffff1673ffffffffffffffffffffffffffffffffffffffff166108fc479081150290604051600060405180830381858888f1935050505015801561043d573d6000803e3d6000fd5b50565b60008080549050905090565b6000818154811061045c57600080fd5b90600052602060002090600302016000915090508060000160009054906101000a900473ffffffffffffffffffffffffffffffffffffffff16908060010154908060020154905083565b6000806000808054905084106104f1576040517f08c379a00000000000000000000000000000000000000000000000000000000081526004016104e890610ab4565b60405180910390fd5b600080858154811061050657610505610ad4565b5b90600052602060002090600302016040518060600160405290816000820160009054906101000a900473ffffffffffffffffffffffffffffffffffffffff1673ffffffffffffffffffffffffffffffffffffffff1673ffffffffffffffffffffffffffffffffffffffff168152602001600182015481526020016002820154815250509050806000015181602001518260400151935093509350509193909250565b600160009054906101000a900473ffffffffffffffffffffffffffffffffffffffff1681565b60606000805480602002602001604051908101604052809291908181526020016000905b8282101561068e57838290600052602060002090600302016040518060600160405290816000820160009054906101000a900473ffffffffffffffffffffffffffffffffffffffff1673ffffffffffffffffffffffffffffffffffffffff1673ffffffffffffffffffffffffffffffffffffffff16815260200160018201548152602001600282015481525050815260200190600101906105f2565b50505050905090565b60025481565b6000819050919050565b6106b08161069d565b82525050565b60006020820190506106cb60008301846106a7565b92915050565b600080fd5b6106df8161069d565b81146106ea57600080fd5b50565b6000813590506106fc816106d6565b92915050565b600060208284031215610718576107176106d1565b5b6000610726848285016106ed565b91505092915050565b600073ffffffffffffffffffffffffffffffffffffffff82169050919050565b600061075a8261072f565b9050919050565b61076a8161074f565b82525050565b60006060820190506107856000830186610761565b61079260208301856106a7565b61079f60408301846106a7565b949350505050565b60006020820190506107bc6000830184610761565b92915050565b600081519050919050565b600082825260208201905092915050565b6000819050602082019050919050565b6107f78161074f565b82525050565b6108068161069d565b82525050565b60608201600082015161082260008501826107ee565b50602082015161083560208501826107fd565b50604082015161084860408501826107fd565b50505050565b600061085a838361080c565b60608301905092915050565b6000602082019050919050565b600061087e826107c2565b61088881856107cd565b9350610893836107de565b8060005b838110156108c45781516108ab888261084e565b97506108b683610866565b925050600181019050610897565b5085935050505092915050565b600060208201905081810360008301526108eb8184610873565b905092915050565b600082825260208201905092915050565b7f446f6e6174696f6e206d7573742062652067726561746572207468616e203000600082015250565b600061093a601f836108f3565b915061094582610904565b602082019050919050565b600060208201905081810360008301526109698161092d565b9050919050565b7f4e487b7100000000000000000000000000000000000000000000000000000000600052601160045260246000fd5b60006109aa8261069d565b91506109b58361069d565b92508282019050808211156109cd576109cc610970565b5b92915050565b60006040820190506109e860008301856106a7565b6109f560208301846106a7565b9392505050565b7f4f6e6c79206f776e65722063616e207769746864726177000000000000000000600082015250565b6000610a326017836108f3565b9150610a3d826109fc565b602082019050919050565b60006020820190508181036000830152610a6181610a25565b9050919050565b7f496e646578206f7574206f6620626f756e647300000000000000000000000000600082015250565b6000610a9e6013836108f3565b9150610aa982610a68565b602082019050919050565b60006020820190508181036000830152610acd81610a91565b9050919050565b7f4e487b7100000000000000000000000000000000000000000000000000000000600052603260045260246000fdfea26469706673582212205a6b3062049a7f9f748ea995ad0d29f262b02e81492573cec396a33c34499b5364736f6c634300081c0033",
  "linkReferences": {},
  "deployedLinkReferences": {}
}